{
  "_format": "hh3-artifact-1",
  "contractName": "ClothingDistribution",
  "sourceName": "contracts/ClothingDistribution.sol",
  "abi": [
    {
      "inputs": [
        {
          "internalType": "address",
          "name": "admin",
          "type": "address"
        }
      ],
      "stateMutability": "nonpayable",
      "type": "constructor"
    },
    {
      "inputs": [],
      "name": "AccessControlBadConfirmation",
      "type": "error"
    },
    {
      "inputs": [
        {
          "internalType": "address",
          "name": "account",
          "type": "address"
        },
        {
          "internalType": "bytes32",
          "name": "neededRole",
          "type": "bytes32"
        }
      ],
      "name": "AccessControlUnauthorizedAccount",
      "type": "error"
    },
    {
      "inputs": [],
      "name": "AlreadyApplied",
      "type": "error"
    },
    {
      "inputs": [],
      "name": "AlreadyApproved",
      "type": "error"
    },
    {
      "inputs": [],
      "name": "BundleNotAvailable",
      "type": "error"
    },
    {
      "inputs": [],
      "name": "BundleNotClaimed",
      "type": "error"
    },
    {
      "inputs": [],
      "name": "BundleNotFound",
      "type": "error"
    },
    {
      "inputs": [],
      "name": "EmptyField",
      "type": "error"
    },
    {
      "inputs": [],
      "name": "EnforcedPause",
      "type": "error"
    },
    {
      "inputs": [],
      "name": "ExpectedPause",
      "type": "error"
    },
    {
      "inputs": [],
      "name": "InvalidApplicantType",
      "type": "error"
    },
    {
      "inputs": [],
      "name": "InvalidItemCount",
      "type": "error"
    },
    {
      "inputs": [],
      "name": "NoPendingApplication",
      "type": "error"
    },
    {
      "inputs": [],
      "name": "NotBundleOwner",
      "type": "error"
    },
    {
      "inputs": [],
      "name": "NotClaimant",
      "type": "error"
    },
    {
      "inputs": [],
      "name": "QrMismatch",
      "type": "error"
    },
    {
      "inputs": [],
      "name": "ReentrancyGuardReentrantCall",
      "type": "error"
    },
    {
      "inputs": [],
      "name": "ZeroAddress",
      "type": "error"
    },
    {
      "anonymous": false,
      "inputs": [
        {
          "indexed": true,
          "internalType": "address",
          "name": "account",
          "type": "address"
        },
        {
          "indexed": false,
          "internalType": "enum ClothingDistribution.ApplicantType",
          "name": "kind",
          "type": "uint8"
        }
      ],
      "name": "ApplicationApproved",
      "type": "event"
    },
    {
      "anonymous": false,
      "inputs": [
        {
          "indexed": true,
          "internalType": "address",
          "name": "account",
          "type": "address"
        }
      ],
      "name": "ApplicationRejected",
      "type": "event"
    },
    {
      "anonymous": false,
      "inputs": [
        {
          "indexed": true,
          "internalType": "address",
          "name": "account",
          "type": "address"
        },
        {
          "indexed": false,
          "internalType": "enum ClothingDistribution.ApplicantType",
          "name": "kind",
          "type": "uint8"
        },
        {
          "indexed": false,
          "internalType": "string",
          "name": "orgName",
          "type": "string"
        }
      ],
      "name": "ApplicationSubmitted",
      "type": "event"
    },
    {
      "anonymous": false,
      "inputs": [
        {
          "indexed": true,
          "internalType": "uint256",
          "name": "bundleId",
          "type": "uint256"
        }
      ],
      "name": "BundleCancelled",
      "type": "event"
    },
    {
      "anonymous": false,
      "inputs": [
        {
          "indexed": true,
          "internalType": "uint256",
          "name": "bundleId",
          "type": "uint256"
        },
        {
          "indexed": true,
          "internalType": "address",
          "name": "ngo",
          "type": "address"
        }
      ],
      "name": "BundleClaimed",
      "type": "event"
    },
    {
      "anonymous": false,
      "inputs": [
        {
          "indexed": true,
          "internalType": "uint256",
          "name": "bundleId",
          "type": "uint256"
        },
        {
          "indexed": true,
          "internalType": "address",
          "name": "supplier",
          "type": "address"
        },
        {
          "indexed": false,
          "internalType": "enum ClothingDistribution.Category",
          "name": "category",
          "type": "uint8"
        },
        {
          "indexed": false,
          "internalType": "uint256",
          "name": "itemCount",
          "type": "uint256"
        },
        {
          "indexed": false,
          "internalType": "bytes32",
          "name": "qrHash",
          "type": "bytes32"
        }
      ],
      "name": "BundleCreated",
      "type": "event"
    },
    {
      "anonymous": false,
      "inputs": [
        {
          "indexed": true,
          "internalType": "uint256",
          "name": "bundleId",
          "type": "uint256"
        },
        {
          "indexed": true,
          "internalType": "address",
          "name": "ngo",
          "type": "address"
        },
        {
          "indexed": false,
          "internalType": "uint256",
          "name": "deliveredAt",
          "type": "uint256"
        }
      ],
      "name": "BundleDelivered",
      "type": "event"
    },
    {
      "anonymous": false,
      "inputs": [
        {
          "indexed": true,
          "internalType": "uint256",
          "name": "bundleId",
          "type": "uint256"
        },
        {
          "indexed": true,
          "internalType": "address",
          "name": "ngo",
          "type": "address"
        }
      ],
      "name": "ClaimReleased",
      "type": "event"
    },
    {
      "anonymous": false,
      "inputs": [
        {
          "indexed": false,
          "internalType": "address",
          "name": "account",
          "type": "address"
        }
      ],
      "name": "Paused",
      "type": "event"
    },
    {
      "anonymous": false,
      "inputs": [
        {
          "indexed": true,
          "internalType": "bytes32",
          "name": "role",
          "type": "bytes32"
        },
        {
          "indexed": true,
          "internalType": "bytes32",
          "name": "previousAdminRole",
          "type": "bytes32"
        },
        {
          "indexed": true,
          "internalType": "bytes32",
          "name": "newAdminRole",
          "type": "bytes32"
        }
      ],
      "name": "RoleAdminChanged",
      "type": "event"
    },
    {
      "anonymous": false,
      "inputs": [
        {
          "indexed": true,
          "internalType": "bytes32",
          "name": "role",
          "type": "bytes32"
        },
        {
          "indexed": true,
          "internalType": "address",
          "name": "account",
          "type": "address"
        },
        {
          "indexed": true,
          "internalType": "address",
          "name": "sender",
          "type": "address"
        }
      ],
      "name": "RoleGranted",
      "type": "event"
    },
    {
      "anonymous": false,
      "inputs": [
        {
          "indexed": true,
          "internalType": "bytes32",
          "name": "role",
          "type": "bytes32"
        },
        {
          "indexed": true,
          "internalType": "address",
          "name": "account",
          "type": "address"
        },
        {
          "indexed": true,
          "internalType": "address",
          "name": "sender",
          "type": "address"
        }
      ],
      "name": "RoleRevoked",
      "type": "event"
    },
    {
      "anonymous": false,
      "inputs": [
        {
          "indexed": false,
          "internalType": "address",
          "name": "account",
          "type": "address"
        }
      ],
      "name": "Unpaused",
      "type": "event"
    },
    {
      "inputs": [],
      "name": "DEFAULT_ADMIN_ROLE",
      "outputs": [
        {
          "internalType": "bytes32",
          "name": "",
          "type": "bytes32"
        }
      ],
      "stateMutability": "view",
      "type": "function"
    },
    {
      "inputs": [],
      "name": "NGO_ROLE",
      "outputs": [
        {
          "internalType": "bytes32",
          "name": "",
          "type": "bytes32"
        }
      ],
      "stateMutability": "view",
      "type": "function"
    },
    {
      "inputs": [],
      "name": "SUPPLIER_ROLE",
      "outputs": [
        {
          "internalType": "bytes32",
          "name": "",
          "type": "bytes32"
        }
      ],
      "stateMutability": "view",
      "type": "function"
    },
    {
      "inputs": [],
      "name": "applicantCount",
      "outputs": [
        {
          "internalType": "uint256",
          "name": "",
          "type": "uint256"
        }
      ],
      "stateMutability": "view",
      "type": "function"
    },
    {
      "inputs": [
        {
          "internalType": "address",
          "name": "",
          "type": "address"
        }
      ],
      "name": "applicants",
      "outputs": [
        {
          "internalType": "address",
          "name": "account",
          "type": "address"
        },
        {
          "internalType": "enum ClothingDistribution.ApplicantType",
          "name": "kind",
          "type": "uint8"
        },
        {
          "internalType": "string",
          "name": "orgName",
          "type": "string"
        },
        {
          "internalType": "string",
          "name": "contactInfo",
          "type": "string"
        },
        {
          "internalType": "enum ClothingDistribution.ApplicationStatus",
          "name": "status",
          "type": "uint8"
        },
        {
          "internalType": "uint256",
          "name": "appliedAt",
          "type": "uint256"
        }
      ],
      "stateMutability": "view",
      "type": "function"
    },
    {
      "inputs": [
        {
          "internalType": "enum ClothingDistribution.ApplicantType",
          "name": "kind",
          "type": "uint8"
        },
        {
          "internalType": "string",
          "name": "orgName",
          "type": "string"
        },
        {
          "internalType": "string",
          "name": "contactInfo",
          "type": "string"
        }
      ],
      "name": "applyForRole",
      "outputs": [],
      "stateMutability": "nonpayable",
      "type": "function"
    },
    {
      "inputs": [
        {
          "internalType": "address",
          "name": "account",
          "type": "address"
        }
      ],
      "name": "approveApplicant",
      "outputs": [],
      "stateMutability": "nonpayable",
      "type": "function"
    },
    {
      "inputs": [],
      "name": "bundleCount",
      "outputs": [
        {
          "internalType": "uint256",
          "name": "",
          "type": "uint256"
        }
      ],
      "stateMutability": "view",
      "type": "function"
    },
    {
      "inputs": [
        {
          "internalType": "uint256",
          "name": "",
          "type": "uint256"
        }
      ],
      "name": "bundles",
      "outputs": [
        {
          "internalType": "uint256",
          "name": "id",
          "type": "uint256"
        },
        {
          "internalType": "address",
          "name": "supplier",
          "type": "address"
        },
        {
          "internalType": "enum ClothingDistribution.Category",
          "name": "category",
          "type": "uint8"
        },
        {
          "internalType": "enum ClothingDistribution.Condition",
          "name": "condition",
          "type": "uint8"
        },
        {
          "internalType": "uint256",
          "name": "itemCount",
          "type": "uint256"
        },
        {
          "internalType": "string",
          "name": "description",
          "type": "string"
        },
        {
          "internalType": "string",
          "name": "originLocation",
          "type": "string"
        },
        {
          "internalType": "bytes32",
          "name": "qrHash",
          "type": "bytes32"
        },
        {
          "internalType": "enum ClothingDistribution.BundleStatus",
          "name": "status",
          "type": "uint8"
        },
        {
          "internalType": "address",
          "name": "claimedBy",
          "type": "address"
        },
        {
          "internalType": "uint256",
          "name": "createdAt",
          "type": "uint256"
        },
        {
          "internalType": "uint256",
          "name": "claimedAt",
          "type": "uint256"
        },
        {
          "internalType": "uint256",
          "name": "deliveredAt",
          "type": "uint256"
        }
      ],
      "stateMutability": "view",
      "type": "function"
    },
    {
      "inputs": [
        {
          "internalType": "uint256",
          "name": "bundleId",
          "type": "uint256"
        }
      ],
      "name": "cancelBundle",
      "outputs": [],
      "stateMutability": "nonpayable",
      "type": "function"
    },
    {
      "inputs": [
        {
          "internalType": "uint256",
          "name": "bundleId",
          "type": "uint256"
        }
      ],
      "name": "claimBundle",
      "outputs": [],
      "stateMutability": "nonpayable",
      "type": "function"
    },
    {
      "inputs": [
        {
          "internalType": "uint256",
          "name": "bundleId",
          "type": "uint256"
        },
        {
          "internalType": "bytes32",
          "name": "scannedQrHash",
          "type": "bytes32"
        }
      ],
      "name": "confirmReceipt",
      "outputs": [],
      "stateMutability": "nonpayable",
      "type": "function"
    },
    {
      "inputs": [
        {
          "internalType": "enum ClothingDistribution.Category",
          "name": "category",
          "type": "uint8"
        },
        {
          "internalType": "enum ClothingDistribution.Condition",
          "name": "condition",
          "type": "uint8"
        },
        {
          "internalType": "uint256",
          "name": "itemCount",
          "type": "uint256"
        },
        {
          "internalType": "string",
          "name": "description",
          "type": "string"
        },
        {
          "internalType": "string",
          "name": "originLocation",
          "type": "string"
        }
      ],
      "name": "createBundle",
      "outputs": [
        {
          "internalType": "uint256",
          "name": "bundleId",
          "type": "uint256"
        },
        {
          "internalType": "bytes32",
          "name": "qrHash",
          "type": "bytes32"
        }
      ],
      "stateMutability": "nonpayable",
      "type": "function"
    },
    {
      "inputs": [],
      "name": "getAllApplicants",
      "outputs": [
        {
          "components": [
            {
              "internalType": "address",
              "name": "account",
              "type": "address"
            },
            {
              "internalType": "enum ClothingDistribution.ApplicantType",
              "name": "kind",
              "type": "uint8"
            },
            {
              "internalType": "string",
              "name": "orgName",
              "type": "string"
            },
            {
              "internalType": "string",
              "name": "contactInfo",
              "type": "string"
            },
            {
              "internalType": "enum ClothingDistribution.ApplicationStatus",
              "name": "status",
              "type": "uint8"
            },
            {
              "internalType": "uint256",
              "name": "appliedAt",
              "type": "uint256"
            }
          ],
          "internalType": "struct ClothingDistribution.Applicant[]",
          "name": "",
          "type": "tuple[]"
        }
      ],
      "stateMutability": "view",
      "type": "function"
    },
    {
      "inputs": [],
      "name": "getAllBundles",
      "outputs": [
        {
          "components": [
            {
              "internalType": "uint256",
              "name": "id",
              "type": "uint256"
            },
            {
              "internalType": "address",
              "name": "supplier",
              "type": "address"
            },
            {
              "internalType": "enum ClothingDistribution.Category",
              "name": "category",
              "type": "uint8"
            },
            {
              "internalType": "enum ClothingDistribution.Condition",
              "name": "condition",
              "type": "uint8"
            },
            {
              "internalType": "uint256",
              "name": "itemCount",
              "type": "uint256"
            },
            {
              "internalType": "string",
              "name": "description",
              "type": "string"
            },
            {
              "internalType": "string",
              "name": "originLocation",
              "type": "string"
            },
            {
              "internalType": "bytes32",
              "name": "qrHash",
              "type": "bytes32"
            },
            {
              "internalType": "enum ClothingDistribution.BundleStatus",
              "name": "status",
              "type": "uint8"
            },
            {
              "internalType": "address",
              "name": "claimedBy",
              "type": "address"
            },
            {
              "internalType": "uint256",
              "name": "createdAt",
              "type": "uint256"
            },
            {
              "internalType": "uint256",
              "name": "claimedAt",
              "type": "uint256"
            },
            {
              "internalType": "uint256",
              "name": "deliveredAt",
              "type": "uint256"
            }
          ],
          "internalType": "struct ClothingDistribution.Bundle[]",
          "name": "",
          "type": "tuple[]"
        }
      ],
      "stateMutability": "view",
      "type": "function"
    },
    {
      "inputs": [
        {
          "internalType": "address",
          "name": "account",
          "type": "address"
        }
      ],
      "name": "getApplicant",
      "outputs": [
        {
          "components": [
            {
              "internalType": "address",
              "name": "account",
              "type": "address"
            },
            {
              "internalType": "enum ClothingDistribution.ApplicantType",
              "name": "kind",
              "type": "uint8"
            },
            {
              "internalType": "string",
              "name": "orgName",
              "type": "string"
            },
            {
              "internalType": "string",
              "name": "contactInfo",
              "type": "string"
            },
            {
              "internalType": "enum ClothingDistribution.ApplicationStatus",
              "name": "status",
              "type": "uint8"
            },
            {
              "internalType": "uint256",
              "name": "appliedAt",
              "type": "uint256"
            }
          ],
          "internalType": "struct ClothingDistribution.Applicant",
          "name": "",
          "type": "tuple"
        }
      ],
      "stateMutability": "view",
      "type": "function"
    },
    {
      "inputs": [
        {
          "internalType": "uint256",
          "name": "bundleId",
          "type": "uint256"
        }
      ],
      "name": "getBundle",
      "outputs": [
        {
          "components": [
            {
              "internalType": "uint256",
              "name": "id",
              "type": "uint256"
            },
            {
              "internalType": "address",
              "name": "supplier",
              "type": "address"
            },
            {
              "internalType": "enum ClothingDistribution.Category",
              "name": "category",
              "type": "uint8"
            },
            {
              "internalType": "enum ClothingDistribution.Condition",
              "name": "condition",
              "type": "uint8"
            },
            {
              "internalType": "uint256",
              "name": "itemCount",
              "type": "uint256"
            },
            {
              "internalType": "string",
              "name": "description",
              "type": "string"
            },
            {
              "internalType": "string",
              "name": "originLocation",
              "type": "string"
            },
            {
              "internalType": "bytes32",
              "name": "qrHash",
              "type": "bytes32"
            },
            {
              "internalType": "enum ClothingDistribution.BundleStatus",
              "name": "status",
              "type": "uint8"
            },
            {
              "internalType": "address",
              "name": "claimedBy",
              "type": "address"
            },
            {
              "internalType": "uint256",
              "name": "createdAt",
              "type": "uint256"
            },
            {
              "internalType": "uint256",
              "name": "claimedAt",
              "type": "uint256"
            },
            {
              "internalType": "uint256",
              "name": "deliveredAt",
              "type": "uint256"
            }
          ],
          "internalType": "struct ClothingDistribution.Bundle",
          "name": "",
          "type": "tuple"
        }
      ],
      "stateMutability": "view",
      "type": "function"
    },
    {
      "inputs": [
        {
          "internalType": "bytes32",
          "name": "role",
          "type": "bytes32"
        }
      ],
      "name": "getRoleAdmin",
      "outputs": [
        {
          "internalType": "bytes32",
          "name": "",
          "type": "bytes32"
        }
      ],
      "stateMutability": "view",
      "type": "function"
    },
    {
      "inputs": [
        {
          "internalType": "address",
          "name": "account",
          "type": "address"
        }
      ],
      "name": "getRoles",
      "outputs": [
        {
          "internalType": "bool",
          "name": "isAdmin",
          "type": "bool"
        },
        {
          "internalType": "bool",
          "name": "isSupplier",
          "type": "bool"
        },
        {
          "internalType": "bool",
          "name": "isNgo",
          "type": "bool"
        }
      ],
      "stateMutability": "view",
      "type": "function"
    },
    {
      "inputs": [],
      "name": "getStats",
      "outputs": [
        {
          "internalType": "uint256",
          "name": "total",
          "type": "uint256"
        },
        {
          "internalType": "uint256",
          "name": "available",
          "type": "uint256"
        },
        {
          "internalType": "uint256",
          "name": "claimed",
          "type": "uint256"
        },
        {
          "internalType": "uint256",
          "name": "delivered",
          "type": "uint256"
        }
      ],
      "stateMutability": "view",
      "type": "function"
    },
    {
      "inputs": [
        {
          "internalType": "bytes32",
          "name": "role",
          "type": "bytes32"
        },
        {
          "internalType": "address",
          "name": "account",
          "type": "address"
        }
      ],
      "name": "grantRole",
      "outputs": [],
      "stateMutability": "nonpayable",
      "type": "function"
    },
    {
      "inputs": [
        {
          "internalType": "bytes32",
          "name": "role",
          "type": "bytes32"
        },
        {
          "internalType": "address",
          "name": "account",
          "type": "address"
        }
      ],
      "name": "hasRole",
      "outputs": [
        {
          "internalType": "bool",
          "name": "",
          "type": "bool"
        }
      ],
      "stateMutability": "view",
      "type": "function"
    },
    {
      "inputs": [],
      "name": "pause",
      "outputs": [],
      "stateMutability": "nonpayable",
      "type": "function"
    },
    {
      "inputs": [],
      "name": "paused",
      "outputs": [
        {
          "internalType": "bool",
          "name": "",
          "type": "bool"
        }
      ],
      "stateMutability": "view",
      "type": "function"
    },
    {
      "inputs": [
        {
          "internalType": "address",
          "name": "account",
          "type": "address"
        },
        {
          "internalType": "enum ClothingDistribution.ApplicantType",
          "name": "kind",
          "type": "uint8"
        }
      ],
      "name": "registerParticipant",
      "outputs": [],
      "stateMutability": "nonpayable",
      "type": "function"
    },
    {
      "inputs": [
        {
          "internalType": "address",
          "name": "account",
          "type": "address"
        }
      ],
      "name": "rejectApplicant",
      "outputs": [],
      "stateMutability": "nonpayable",
      "type": "function"
    },
    {
      "inputs": [
        {
          "internalType": "uint256",
          "name": "bundleId",
          "type": "uint256"
        }
      ],
      "name": "releaseClaim",
      "outputs": [],
      "stateMutability": "nonpayable",
      "type": "function"
    },
    {
      "inputs": [
        {
          "internalType": "bytes32",
          "name": "role",
          "type": "bytes32"
        },
        {
          "internalType": "address",
          "name": "callerConfirmation",
          "type": "address"
        }
      ],
      "name": "renounceRole",
      "outputs": [],
      "stateMutability": "nonpayable",
      "type": "function"
    },
    {
      "inputs": [
        {
          "internalType": "bytes32",
          "name": "role",
          "type": "bytes32"
        },
        {
          "internalType": "address",
          "name": "account",
          "type": "address"
        }
      ],
      "name": "revokeRole",
      "outputs": [],
      "stateMutability": "nonpayable",
      "type": "function"
    },
    {
      "inputs": [
        {
          "internalType": "bytes4",
          "name": "interfaceId",
          "type": "bytes4"
        }
      ],
      "name": "supportsInterface",
      "outputs": [
        {
          "internalType": "bool",
          "name": "",
          "type": "bool"
        }
      ],
      "stateMutability": "view",
      "type": "function"
    },
    {
      "inputs": [],
      "name": "unpause",
      "outputs": [],
      "stateMutability": "nonpayable",
      "type": "function"
    }
  ],
  "bytecode": "0x608060405234801561000f575f5ffd5b5060405161312f38038061312f83398101604081905261002e91610133565b60017f9b779b17422d0df92223018b32b4d1fa46e071723d6817e2486d003becc55f00556001600160a01b0381166100795760405163d92e233d60e01b815260040160405180910390fd5b6100835f8261008a565b5050610160565b5f828152602081815260408083206001600160a01b038516845290915281205460ff1661012a575f838152602081815260408083206001600160a01b03861684529091529020805460ff191660011790556100e23390565b6001600160a01b0316826001600160a01b0316847f2f8788117e7eff1d82e926ec794901d17c78024a50270940304540a733656f0d60405160405180910390a450600161012d565b505f5b92915050565b5f60208284031215610143575f5ffd5b81516001600160a01b0381168114610159575f5ffd5b9392505050565b612fc28061016d5f395ff3fe608060405234801561000f575f5ffd5b50600436106101dc575f3560e01c806397ecbd4b11610109578063ccd668631161009e578063d5c191511161006e578063d5c191511461046f578063e4eef4aa14610478578063f10a6dfc1461048b578063fe5d49a01461049f575f5ffd5b8063ccd66863146103d9578063ce6ccfaf146103fe578063cf19384b14610430578063d547741f1461045c575f5ffd5b8063a8b12f5c116100d9578063a8b12f5c14610378578063a8bde4eb1461038b578063c59d48471461039e578063c6adc759146103c6575f5ffd5b806397ecbd4b14610320578063a217fddf14610335578063a29508fc1461033c578063a87ffd7714610350575f5ffd5b806336568abe1161017f5780635c975abb1161014f5780635c975abb146102e75780635f998a1a146102f25780638456cb591461030557806391d148541461030d575f5ffd5b806336568abe14610297578063388d5399146102aa5780633b8e1bf5146102bf5780633f4ba83a146102df575f5ffd5b8063248a9ca3116101ba578063248a9ca31461022f578063273f868e146102515780632d0821b7146102645780632f2ff15d14610284575f5ffd5b806301ffc9a7146101e05780631292a2821461020857806318f539931461021d575b5f5ffd5b6101f36101ee3660046126d0565b6104b2565b60405190151581526020015b60405180910390f35b61021b610216366004612719565b6104e8565b005b6005545b6040519081526020016101ff565b61022161023d366004612732565b5f9081526020819052604090206001015490565b61021b61025f366004612719565b610605565b610277610272366004612732565b6106a7565b6040516101ff91906128c2565b61021b6102923660046128d4565b6108f6565b61021b6102a53660046128d4565b610920565b6102b2610958565b6040516101ff919061297c565b6102d26102cd366004612719565b610bfd565b6040516101ff91906129df565b61021b610dfa565b60015460ff166101f3565b61021b610300366004612a42565b610e0f565b61021b611141565b6101f361031b3660046128d4565b611153565b61032861117b565b6040516101ff9190612ac4565b6102215f81565b6102215f516020612f2d5f395f51905f5281565b61036361035e366004612b1b565b61145c565b604080519283526020830191909152016101ff565b61021b610386366004612bbb565b6117c0565b61021b610399366004612732565b611bb0565b6103a6611cb3565b6040805194855260208501939093529183015260608201526080016101ff565b61021b6103d4366004612732565b611d6f565b6103ec6103e7366004612719565b611e60565b6040516101ff96959493929190612bf0565b61041161040c366004612719565b611fb4565b60408051931515845291151560208401521515908201526060016101ff565b61044361043e366004612732565b611ffb565b6040516101ff9d9c9b9a99989796959493929190612c52565b61021b61046a3660046128d4565b61218c565b61022160025481565b61021b610486366004612cfd565b6121b0565b6102215f516020612f4d5f395f51905f5281565b61021b6104ad366004612732565b6122ff565b5f6001600160e01b03198216637965db0b60e01b14806104e257506301ffc9a760e01b6001600160e01b03198316145b92915050565b5f6104f2816123f8565b6001600160a01b0382165f908152600460205260409020600160038083015460ff169081111561052457610524612749565b1461054257604051630156fa4960e71b815260040160405180910390fd5b6003810180546002919060ff1916600183021790555060018154600160a01b900460ff16600281111561057757610577612749565b03610599576105935f516020612f2d5f395f51905f5284612402565b506105b2565b6105b05f516020612f4d5f395f51905f5284612402565b505b80546040516001600160a01b038516917fc868509ac3153af6fa59eddbf5a39573b249b5932e50f48ba1cdbd18d733f732916105f891600160a01b900460ff1690612d1d565b60405180910390a2505050565b5f61060f816123f8565b6001600160a01b0382165f908152600460205260409020600160038083015460ff169081111561064157610641612749565b1461065f57604051630156fa4960e71b815260040160405180910390fd5b6003818101805460ff191690911790556040516001600160a01b038416907f1f0a6c2915f60c0920a58b6280b2dba8372ed485bd4556f6a0bb69bc991aa8ab905f90a2505050565b6106af612657565b5f8281526003602090815260409182902082516101a0810184528154815260018201546001600160a01b0381169382019390935292909190830190600160a01b900460ff16600581111561070557610705612749565b600581111561071657610716612749565b81526020016001820160159054906101000a900460ff16600281111561073e5761073e612749565b600281111561074f5761074f612749565b81526020016002820154815260200160038201805461076d90612d30565b80601f016020809104026020016040519081016040528092919081815260200182805461079990612d30565b80156107e45780601f106107bb576101008083540402835291602001916107e4565b820191905f5260205f20905b8154815290600101906020018083116107c757829003601f168201915b505050505081526020016004820180546107fd90612d30565b80601f016020809104026020016040519081016040528092919081815260200182805461082990612d30565b80156108745780601f1061084b57610100808354040283529160200191610874565b820191905f5260205f20905b81548152906001019060200180831161085757829003601f168201915b505050918352505060058201546020820152600682015460409091019060ff1660038111156108a5576108a5612749565b60038111156108b6576108b6612749565b8152600682015461010090046001600160a01b03166020820152600782015460408201526008820154606082015260099091015460809091015292915050565b5f82815260208190526040902060010154610910816123f8565b61091a8383612402565b50505050565b6001600160a01b03811633146109495760405163334bd91960e11b815260040160405180910390fd5b6109538282612491565b505050565b6005546060905f9067ffffffffffffffff81111561097857610978612d62565b6040519080825280602002602001820160405280156109e057816020015b6109cd6040805160c081019091525f8082526020820190815260606020820181905260408201819052015f81526020015f81525090565b8152602001906001900390816109965790505b5090505f5b600554811015610bf75760045f60058381548110610a0557610a05612d76565b5f9182526020808320909101546001600160a01b039081168452838201949094526040928301909120825160c081019093528054938416835291929083019060ff600160a01b909104166002811115610a6057610a60612749565b6002811115610a7157610a71612749565b8152602001600182018054610a8590612d30565b80601f0160208091040260200160405190810160405280929190818152602001828054610ab190612d30565b8015610afc5780601f10610ad357610100808354040283529160200191610afc565b820191905f5260205f20905b815481529060010190602001808311610adf57829003601f168201915b50505050508152602001600282018054610b1590612d30565b80601f0160208091040260200160405190810160405280929190818152602001828054610b4190612d30565b8015610b8c5780601f10610b6357610100808354040283529160200191610b8c565b820191905f5260205f20905b815481529060010190602001808311610b6f57829003601f168201915b505050918352505060038281015460209092019160ff1690811115610bb357610bb3612749565b6003811115610bc457610bc4612749565b8152602001600482015481525050828281518110610be457610be4612d76565b60209081029190910101526001016109e5565b50919050565b610c346040805160c081019091525f8082526020820190815260606020820181905260408201819052015f81526020015f81525090565b6001600160a01b038281165f90815260046020908152604091829020825160c0810190935280549384168352919290830190600160a01b900460ff166002811115610c8157610c81612749565b6002811115610c9257610c92612749565b8152602001600182018054610ca690612d30565b80601f0160208091040260200160405190810160405280929190818152602001828054610cd290612d30565b8015610d1d5780601f10610cf457610100808354040283529160200191610d1d565b820191905f5260205f20905b815481529060010190602001808311610d0057829003601f168201915b50505050508152602001600282018054610d3690612d30565b80601f0160208091040260200160405190810160405280929190818152602001828054610d6290612d30565b8015610dad5780601f10610d8457610100808354040283529160200191610dad565b820191905f5260205f20905b815481529060010190602001808311610d9057829003601f168201915b505050918352505060038281015460209092019160ff1690811115610dd457610dd4612749565b6003811115610de557610de5612749565b81526020016004820154815250509050919050565b5f610e04816123f8565b610e0c6124fa565b50565b610e1761254c565b6001856002811115610e2b57610e2b612749565b14158015610e4b57506002856002811115610e4857610e48612749565b14155b15610e6957604051633232159560e11b815260040160405180910390fd5b5f839003610e8a57604051630103b55560e71b815260040160405180910390fd5b610ea15f516020612f2d5f395f51905f5233611153565b80610ebe5750610ebe5f516020612f4d5f395f51905f5233611153565b15610edc5760405163080fc0bd60e11b815260040160405180910390fd5b335f908152600460205260409020600160038083015460ff1690811115610f0557610f05612749565b03610f225760405162540c0360e11b815260040160405180910390fd5b5f60038083015460ff1690811115610f3c57610f3c612749565b03610f8357600580546001810182555f919091527f036b6384b5eca791c62761152d0c79bb0604c104a5fb6f4eb0703f3154bb3db00180546001600160a01b031916331790555b6040518060c00160405280336001600160a01b03168152602001876002811115610faf57610faf612749565b815260200186868080601f0160208091040260200160405190810160405280939291908181526020018383808284375f92019190915250505090825250604080516020601f8701819004810282018101909252858152918101919086908690819084018382808284375f920191909152505050908252506020016001815242602091820152335f9081526004825260409020825181546001600160a01b03919091166001600160a01b031982168117835592840151919283916001600160a81b03191617600160a01b83600281111561108a5761108a612749565b0217905550604082015160018201906110a39082612dd5565b50606082015160028201906110b89082612dd5565b506080820151816003015f6101000a81548160ff021916908360038111156110e2576110e2612749565b021790555060a08201518160040155905050336001600160a01b03167fc7dccc4d967e6d748e2ef61732a7c1c1578364eb318794d3fd5278ed7078caa087878760405161113193929190612e90565b60405180910390a2505050505050565b5f61114b816123f8565b610e0c612572565b5f918252602082815260408084206001600160a01b0393909316845291905290205460ff1690565b60605f60025467ffffffffffffffff81111561119957611199612d62565b6040519080825280602002602001820160405280156111d257816020015b6111bf612657565b8152602001906001900390816111b75790505b50905060015b6002548111610bf7575f8181526003602090815260409182902082516101a0810184528154815260018201546001600160a01b0381169382019390935292909190830190600160a01b900460ff16600581111561123757611237612749565b600581111561124857611248612749565b81526020016001820160159054906101000a900460ff16600281111561127057611270612749565b600281111561128157611281612749565b81526020016002820154815260200160038201805461129f90612d30565b80601f01602080910402602001604051908101604052809291908181526020018280546112cb90612d30565b80156113165780601f106112ed57610100808354040283529160200191611316565b820191905f5260205f20905b8154815290600101906020018083116112f957829003601f168201915b5050505050815260200160048201805461132f90612d30565b80601f016020809104026020016040519081016040528092919081815260200182805461135b90612d30565b80156113a65780601f1061137d576101008083540402835291602001916113a6565b820191905f5260205f20905b81548152906001019060200180831161138957829003601f168201915b505050918352505060058201546020820152600682015460409091019060ff1660038111156113d7576113d7612749565b60038111156113e8576113e8612749565b8152600682015461010090046001600160a01b0316602082015260078201546040820152600882015460608201526009909101546080909101528261142e600184612ee2565b8151811061143e5761143e612d76565b6020026020010181905250808061145490612ef5565b9150506111d8565b5f5f61146661254c565b5f516020612f2d5f395f51905f5261147d816123f8565b875f0361149d5760405163e464bf7560e01b815260040160405180910390fd5b5f8690036114be57604051630103b55560e71b815260040160405180910390fd5b5f8490036114df57604051630103b55560e71b815260040160405180910390fd5b600280546001019081905560408051602081018390526bffffffffffffffffffffffff193360601b1691810191909152426054820152446074820152909350609401604051602081830303815290604052805190602001209150604051806101a00160405280848152602001336001600160a01b031681526020018b600581111561156c5761156c612749565b81526020018a600281111561158357611583612749565b815260200189815260200188888080601f0160208091040260200160405190810160405280939291908181526020018383808284375f92019190915250505090825250604080516020601f8901819004810282018101909252878152918101919088908890819084018382808284375f920182905250938552505050602080830186905260408084018390526060840183905242608085015260a0840183905260c0909301829052868252600381529082902083518155908301516001820180546001600160a01b039092166001600160a01b031983168117825593850151929390916001600160a81b03191617600160a01b83600581111561168857611688612749565b0217905550606082015160018201805460ff60a81b1916600160a81b8360028111156116b6576116b6612749565b02179055506080820151600282015560a082015160038201906116d99082612dd5565b5060c082015160048201906116ee9082612dd5565b5060e0820151600582015561010082015160068201805460ff1916600183600381111561171d5761171d612749565b02179055506101208201516006820180546001600160a01b0390921661010002610100600160a81b03199092169190911790556101408201516007820155610160820151600882015561018090910151600990910155604051339084907f0d4c70bd5f04e848306c811044e4dd5ce0377001c414ff25c23f10d869147562906117ab908e908d908890612f0d565b60405180910390a35097509795505050505050565b5f6117ca816123f8565b6001600160a01b0383166117f15760405163d92e233d60e01b815260040160405180910390fd5b600182600281111561180557611805612749565b141580156118255750600282600281111561182257611822612749565b14155b1561184357604051633232159560e11b815260040160405180910390fd5b6001600160a01b0383165f90815260046020526040812060039081015460ff169081111561187357611873612749565b036118c357600580546001810182555f919091527f036b6384b5eca791c62761152d0c79bb0604c104a5fb6f4eb0703f3154bb3db00180546001600160a01b0319166001600160a01b0385161790555b6040518060c00160405280846001600160a01b031681526020018360028111156118ef576118ef612749565b815260200160045f866001600160a01b03166001600160a01b031681526020019081526020015f20600101805461192590612d30565b80601f016020809104026020016040519081016040528092919081815260200182805461195190612d30565b801561199c5780601f106119735761010080835404028352916020019161199c565b820191905f5260205f20905b81548152906001019060200180831161197f57829003601f168201915b5050505050815260200160045f866001600160a01b03166001600160a01b031681526020019081526020015f2060020180546119d790612d30565b80601f0160208091040260200160405190810160405280929190818152602001828054611a0390612d30565b8015611a4e5780601f10611a2557610100808354040283529160200191611a4e565b820191905f5260205f20905b815481529060010190602001808311611a3157829003601f168201915b505050918352505060200160028152426020918201526001600160a01b038086165f90815260048352604090208351815492166001600160a01b0319831681178255928401519092909183916001600160a81b031990911617600160a01b836002811115611abe57611abe612749565b021790555060408201516001820190611ad79082612dd5565b5060608201516002820190611aec9082612dd5565b506080820151816003015f6101000a81548160ff02191690836003811115611b1657611b16612749565b021790555060a091909101516004909101556001826002811115611b3c57611b3c612749565b03611b5e57611b585f516020612f2d5f395f51905f5284612402565b50611b77565b611b755f516020612f4d5f395f51905f5284612402565b505b826001600160a01b03167fc868509ac3153af6fa59eddbf5a39573b249b5932e50f48ba1cdbd18d733f732836040516105f89190612d1d565b611bb861254c565b5f516020612f4d5f395f51905f52611bcf816123f8565b5f8281526003602052604081208054909103611bfe57604051630462738560e21b815260040160405180910390fd5b6001600682015460ff166003811115611c1957611c19612749565b14611c3757604051631430c32560e21b815260040160405180910390fd5b600681015461010090046001600160a01b03163314611c6957604051634a7777b360e11b815260040160405180910390fd5b6006810180546001600160a81b03191690555f60088201819055604051339185917f909d0309e792d4f17972cef6c4067bfd0b5fa112dd3aa00415fbac21afa3eb3e9190a3505050565b6002545f808060015b6002548111611d68575f8181526003602052604081206006015460ff1690816003811115611cec57611cec612749565b03611d035784611cfb81612ef5565b955050611d55565b6001816003811115611d1757611d17612749565b03611d2e5783611d2681612ef5565b945050611d55565b6002816003811115611d4257611d42612749565b03611d555782611d5181612ef5565b9350505b5080611d6081612ef5565b915050611cbc565b5090919293565b611d7761254c565b5f516020612f2d5f395f51905f52611d8e816123f8565b5f8281526003602052604081208054909103611dbd57604051630462738560e21b815260040160405180910390fd5b60018101546001600160a01b03163314611dea576040516328f71f6b60e21b815260040160405180910390fd5b5f600682015460ff166003811115611e0457611e04612749565b14611e22576040516323ad198f60e21b815260040160405180910390fd5b60068101805460ff1916600317905560405183907ffb1e81a398ab1151f909477fceda31896ba36e774040b4ec8ce044b230cf85b4905f90a2505050565b60046020525f9081526040902080546001820180546001600160a01b03831693600160a01b90930460ff16929190611e9790612d30565b80601f0160208091040260200160405190810160405280929190818152602001828054611ec390612d30565b8015611f0e5780601f10611ee557610100808354040283529160200191611f0e565b820191905f5260205f20905b815481529060010190602001808311611ef157829003601f168201915b505050505090806002018054611f2390612d30565b80601f0160208091040260200160405190810160405280929190818152602001828054611f4f90612d30565b8015611f9a5780601f10611f7157610100808354040283529160200191611f9a565b820191905f5260205f20905b815481529060010190602001808311611f7d57829003601f168201915b505050506003830154600490930154919260ff1691905086565b5f8080611fc18185611153565b9250611fda5f516020612f2d5f395f51905f5285611153565b9150611ff35f516020612f4d5f395f51905f5285611153565b929491935050565b600360208190525f9182526040909120805460018201546002830154938301805492946001600160a01b0383169460ff600160a01b8504811695600160a81b90950416939192909161204c90612d30565b80601f016020809104026020016040519081016040528092919081815260200182805461207890612d30565b80156120c35780601f1061209a576101008083540402835291602001916120c3565b820191905f5260205f20905b8154815290600101906020018083116120a657829003601f168201915b5050505050908060040180546120d890612d30565b80601f016020809104026020016040519081016040528092919081815260200182805461210490612d30565b801561214f5780601f106121265761010080835404028352916020019161214f565b820191905f5260205f20905b81548152906001019060200180831161213257829003601f168201915b5050505060058301546006840154600785015460088601546009909601549495929460ff831694506101009092046001600160a01b03169290918d565b5f828152602081905260409020600101546121a6816123f8565b61091a8383612491565b6121b861254c565b6121c06125ad565b5f516020612f4d5f395f51905f526121d7816123f8565b5f838152600360205260408120805490910361220657604051630462738560e21b815260040160405180910390fd5b6001600682015460ff16600381111561222157612221612749565b1461223f57604051631430c32560e21b815260040160405180910390fd5b600681015461010090046001600160a01b0316331461227157604051634a7777b360e11b815260040160405180910390fd5b806005015483146122955760405163165cca5d60e11b815260040160405180910390fd5b60068101805460ff191660021790554260098201819055604051908152339085907f79f7ec21524cd4931f1dc2810b578518b839a495035871ad34bc60b41d40da019060200160405180910390a350506122fb60015f516020612f6d5f395f51905f5255565b5050565b61230761254c565b61230f6125ad565b5f516020612f4d5f395f51905f52612326816123f8565b5f828152600360205260408120805490910361235557604051630462738560e21b815260040160405180910390fd5b5f600682015460ff16600381111561236f5761236f612749565b1461238d576040516323ad198f60e21b815260040160405180910390fd5b600681018054610100339081026001600160a81b03199092169190911760011790915542600883015560405184907f6e7204c4f105b4250aa51182b6c563c6abf8da6d2fc743ba9d673a6bd5022c38905f90a35050610e0c60015f516020612f6d5f395f51905f5255565b610e0c81336125c8565b5f61240d8383611153565b61248a575f838152602081815260408083206001600160a01b03861684529091529020805460ff191660011790556124423390565b6001600160a01b0316826001600160a01b0316847f2f8788117e7eff1d82e926ec794901d17c78024a50270940304540a733656f0d60405160405180910390a45060016104e2565b505f6104e2565b5f61249c8383611153565b1561248a575f838152602081815260408083206001600160a01b0386168085529252808320805460ff1916905551339286917ff6391f5c32d9c69d2a47ea670b442974b53935d1edc7fd64eb21e047a839171b9190a45060016104e2565b612502612605565b6001805460ff191690557f5db9ee0a495bf2e6ff9c91a7834c1ba4fdd244a5e8aa4e537bd38aeae4b073aa335b6040516001600160a01b03909116815260200160405180910390a1565b60015460ff16156125705760405163d93c066560e01b815260040160405180910390fd5b565b61257a61254c565b6001805460ff1916811790557f62e78cea01bee320cd4e420270b5ea74000d11b0c9f74754ebdbfc544b05a2583361252f565b6125b5612628565b60025f516020612f6d5f395f51905f5255565b6125d28282611153565b6122fb5760405163e2517d3f60e01b81526001600160a01b03821660048201526024810183905260440160405180910390fd5b60015460ff1661257057604051638dfc202b60e01b815260040160405180910390fd5b5f516020612f6d5f395f51905f525460020361257057604051633ee5aeb560e01b815260040160405180910390fd5b604080516101a0810182525f80825260208201819052909182019081526020015f81526020015f815260200160608152602001606081526020015f81526020015f60038111156126a9576126a9612749565b81526020015f6001600160a01b031681526020015f81526020015f81526020015f81525090565b5f602082840312156126e0575f5ffd5b81356001600160e01b0319811681146126f7575f5ffd5b9392505050565b80356001600160a01b0381168114612714575f5ffd5b919050565b5f60208284031215612729575f5ffd5b6126f7826126fe565b5f60208284031215612742575f5ffd5b5035919050565b634e487b7160e01b5f52602160045260245ffd5b6006811061276d5761276d612749565b9052565b60038110610e0c57610e0c612749565b61276d81612771565b5f81518084528060208401602086015e5f602082860101526020601f19601f83011685010191505092915050565b60048110610e0c57610e0c612749565b61276d816127b8565b805182525f60208201516127f060208501826001600160a01b03169052565b506040820151612803604085018261275d565b5060608201516128166060850182612781565b506080820151608084015260a08201516101a060a085015261283c6101a085018261278a565b905060c083015184820360c0860152612855828261278a565b91505060e083015160e08501526101008301516128766101008601826127c8565b506101208301516128936101208601826001600160a01b03169052565b506101408301516101408501526101608301516101608501526101808301516101808501528091505092915050565b602081525f6126f760208301846127d1565b5f5f604083850312156128e5575f5ffd5b823591506128f5602084016126fe565b90509250929050565b80516001600160a01b0316825260208101515f9061291b81612771565b80602085015250604082015160c0604085015261293b60c085018261278a565b905060608301518482036060860152612954828261278a565b9150506080830151612965816127b8565b608085015260a09283015192909301919091525090565b5f602082016020835280845180835260408501915060408160051b8601019250602086015f5b828110156129d357603f198786030184526129be8583516128fe565b945060209384019391909101906001016129a2565b50929695505050505050565b602081525f6126f760208301846128fe565b60038110610e0c575f5ffd5b5f5f83601f840112612a0d575f5ffd5b50813567ffffffffffffffff811115612a24575f5ffd5b602083019150836020828501011115612a3b575f5ffd5b9250929050565b5f5f5f5f5f60608688031215612a56575f5ffd5b8535612a61816129f1565b9450602086013567ffffffffffffffff811115612a7c575f5ffd5b612a88888289016129fd565b909550935050604086013567ffffffffffffffff811115612aa7575f5ffd5b612ab3888289016129fd565b969995985093965092949392505050565b5f602082016020835280845180835260408501915060408160051b8601019250602086015f5b828110156129d357603f19878603018452612b068583516127d1565b94506020938401939190910190600101612aea565b5f5f5f5f5f5f5f60a0888a031215612b31575f5ffd5b873560068110612b3f575f5ffd5b96506020880135612b4f816129f1565b955060408801359450606088013567ffffffffffffffff811115612b71575f5ffd5b612b7d8a828b016129fd565b909550935050608088013567ffffffffffffffff811115612b9c575f5ffd5b612ba88a828b016129fd565b989b979a50959850939692959293505050565b5f5f60408385031215612bcc575f5ffd5b612bd5836126fe565b91506020830135612be5816129f1565b809150509250929050565b6001600160a01b0387168152612c0586612771565b85602082015260c060408201525f612c2060c083018761278a565b8281036060840152612c32818761278a565b915050612c3e846127b8565b608082019390935260a00152949350505050565b8d81526001600160a01b038d166020820152612c71604082018d61275d565b612c7a8b612771565b8a60608201528960808201526101a060a08201525f612c9d6101a083018b61278a565b82810360c0840152612caf818b61278a565b9150508760e0830152612cc66101008301886127c8565b6001600160a01b0386166101208301528461014083015283610160830152826101808301529e9d5050505050505050505050505050565b5f5f60408385031215612d0e575f5ffd5b50508035926020909101359150565b60208101612d2a83612771565b91905290565b600181811c90821680612d4457607f821691505b602082108103610bf757634e487b7160e01b5f52602260045260245ffd5b634e487b7160e01b5f52604160045260245ffd5b634e487b7160e01b5f52603260045260245ffd5b601f82111561095357805f5260205f20601f840160051c81016020851015612daf5750805b601f840160051c820191505b81811015612dce575f8155600101612dbb565b5050505050565b815167ffffffffffffffff811115612def57612def612d62565b612e0381612dfd8454612d30565b84612d8a565b6020601f821160018114612e35575f8315612e1e5750848201515b5f19600385901b1c1916600184901b178455612dce565b5f84815260208120601f198516915b82811015612e645787850151825560209485019460019092019101612e44565b5084821015612e8157868401515f19600387901b60f8161c191681555b50505050600190811b01905550565b612e9984612771565b83815260406020820152816040820152818360608301375f818301606090810191909152601f909201601f1916010192915050565b634e487b7160e01b5f52601160045260245ffd5b818103818111156104e2576104e2612ece565b5f60018201612f0657612f06612ece565b5060010190565b60608101612f1b828661275d565b60208201939093526040015291905056fed1ae8bbdabd60d63e418b84f5ad6f9cba90092c9816d7724d85f0d4e4bea2c607409dd26ef14054436243be79996fa1ab352eb1e8f34bcf72012e7de1d1176f09b779b17422d0df92223018b32b4d1fa46e071723d6817e2486d003becc55f00a26469706673582212200483c25173701fe540c099b71e14681934387aba7b145f5f3687f1735268dc9f64736f6c634300081c0033",
  "linkReferences": {},
  "deployedLinkReferences": {},
  "immutableReferences": {},
  "inputSourceName": "project/contracts/ClothingDistribution.sol",
  "buildInfoId": "solc-0_8_28-3849792c1909bd2a5ebf8f2ecc18056441102b33"
}