{
  "_format": "hh3-artifact-1",
  "contractName": "ClothingDistribution",
  "sourceName": "contracts/ClothingDistribution.sol",
  "abi": [
    {
      "inputs": [
        {
          "internalType": "address",
          "name": "admin",
          "type": "address"
        }
      ],
      "stateMutability": "nonpayable",
      "type": "constructor"
    },
    {
      "inputs": [],
      "name": "AccessControlBadConfirmation",
      "type": "error"
    },
    {
      "inputs": [
        {
          "internalType": "address",
          "name": "account",
          "type": "address"
        },
        {
          "internalType": "bytes32",
          "name": "neededRole",
          "type": "bytes32"
        }
      ],
      "name": "AccessControlUnauthorizedAccount",
      "type": "error"
    },
    {
      "inputs": [],
      "name": "AlreadyAllocated",
      "type": "error"
    },
    {
      "inputs": [],
      "name": "EmptyField",
      "type": "error"
    },
    {
      "inputs": [],
      "name": "EnforcedPause",
      "type": "error"
    },
    {
      "inputs": [],
      "name": "ExpectedPause",
      "type": "error"
    },
    {
      "inputs": [],
      "name": "InvalidItem",
      "type": "error"
    },
    {
      "inputs": [],
      "name": "InvalidQuantity",
      "type": "error"
    },
    {
      "inputs": [],
      "name": "InvalidRequest",
      "type": "error"
    },
    {
      "inputs": [],
      "name": "InvalidStatus",
      "type": "error"
    },
    {
      "inputs": [],
      "name": "ReentrancyGuardReentrantCall",
      "type": "error"
    },
    {
      "inputs": [],
      "name": "Unauthorized",
      "type": "error"
    },
    {
      "anonymous": false,
      "inputs": [
        {
          "indexed": true,
          "internalType": "uint256",
          "name": "itemId",
          "type": "uint256"
        },
        {
          "indexed": true,
          "internalType": "address",
          "name": "supplier",
          "type": "address"
        },
        {
          "indexed": false,
          "internalType": "string",
          "name": "garmentProfile",
          "type": "string"
        }
      ],
      "name": "ClothingTokenized",
      "type": "event"
    },
    {
      "anonymous": false,
      "inputs": [
        {
          "indexed": true,
          "internalType": "uint256",
          "name": "requestId",
          "type": "uint256"
        },
        {
          "indexed": true,
          "internalType": "uint256",
          "name": "itemId",
          "type": "uint256"
        },
        {
          "indexed": true,
          "internalType": "address",
          "name": "ngo",
          "type": "address"
        }
      ],
      "name": "DeliveryVerified",
      "type": "event"
    },
    {
      "anonymous": false,
      "inputs": [
        {
          "indexed": false,
          "internalType": "address",
          "name": "account",
          "type": "address"
        }
      ],
      "name": "Paused",
      "type": "event"
    },
    {
      "anonymous": false,
      "inputs": [
        {
          "indexed": true,
          "internalType": "uint256",
          "name": "requestId",
          "type": "uint256"
        },
        {
          "indexed": true,
          "internalType": "address",
          "name": "ngo",
          "type": "address"
        },
        {
          "indexed": false,
          "internalType": "string",
          "name": "itemType",
          "type": "string"
        },
        {
          "indexed": false,
          "internalType": "uint256",
          "name": "quantity",
          "type": "uint256"
        }
      ],
      "name": "ReliefRequestCreated",
      "type": "event"
    },
    {
      "anonymous": false,
      "inputs": [
        {
          "indexed": true,
          "internalType": "uint256",
          "name": "requestId",
          "type": "uint256"
        }
      ],
      "name": "RequestCancelled",
      "type": "event"
    },
    {
      "anonymous": false,
      "inputs": [
        {
          "indexed": true,
          "internalType": "bytes32",
          "name": "role",
          "type": "bytes32"
        },
        {
          "indexed": true,
          "internalType": "bytes32",
          "name": "previousAdminRole",
          "type": "bytes32"
        },
        {
          "indexed": true,
          "internalType": "bytes32",
          "name": "newAdminRole",
          "type": "bytes32"
        }
      ],
      "name": "RoleAdminChanged",
      "type": "event"
    },
    {
      "anonymous": false,
      "inputs": [
        {
          "indexed": true,
          "internalType": "bytes32",
          "name": "role",
          "type": "bytes32"
        },
        {
          "indexed": true,
          "internalType": "address",
          "name": "account",
          "type": "address"
        },
        {
          "indexed": true,
          "internalType": "address",
          "name": "sender",
          "type": "address"
        }
      ],
      "name": "RoleGranted",
      "type": "event"
    },
    {
      "anonymous": false,
      "inputs": [
        {
          "indexed": true,
          "internalType": "bytes32",
          "name": "role",
          "type": "bytes32"
        },
        {
          "indexed": true,
          "internalType": "address",
          "name": "account",
          "type": "address"
        },
        {
          "indexed": true,
          "internalType": "address",
          "name": "sender",
          "type": "address"
        }
      ],
      "name": "RoleRevoked",
      "type": "event"
    },
    {
      "anonymous": false,
      "inputs": [
        {
          "indexed": true,
          "internalType": "uint256",
          "name": "requestId",
          "type": "uint256"
        },
        {
          "indexed": true,
          "internalType": "uint256",
          "name": "itemId",
          "type": "uint256"
        },
        {
          "indexed": true,
          "internalType": "address",
          "name": "matchedBy",
          "type": "address"
        }
      ],
      "name": "SupplyMatched",
      "type": "event"
    },
    {
      "anonymous": false,
      "inputs": [
        {
          "indexed": false,
          "internalType": "address",
          "name": "account",
          "type": "address"
        }
      ],
      "name": "Unpaused",
      "type": "event"
    },
    {
      "inputs": [],
      "name": "DEFAULT_ADMIN_ROLE",
      "outputs": [
        {
          "internalType": "bytes32",
          "name": "",
          "type": "bytes32"
        }
      ],
      "stateMutability": "view",
      "type": "function"
    },
    {
      "inputs": [],
      "name": "MATCHER_ROLE",
      "outputs": [
        {
          "internalType": "bytes32",
          "name": "",
          "type": "bytes32"
        }
      ],
      "stateMutability": "view",
      "type": "function"
    },
    {
      "inputs": [],
      "name": "NGO_ROLE",
      "outputs": [
        {
          "internalType": "bytes32",
          "name": "",
          "type": "bytes32"
        }
      ],
      "stateMutability": "view",
      "type": "function"
    },
    {
      "inputs": [],
      "name": "SUPPLIER_ROLE",
      "outputs": [
        {
          "internalType": "bytes32",
          "name": "",
          "type": "bytes32"
        }
      ],
      "stateMutability": "view",
      "type": "function"
    },
    {
      "inputs": [
        {
          "internalType": "address",
          "name": "matcher",
          "type": "address"
        }
      ],
      "name": "addMatcher",
      "outputs": [],
      "stateMutability": "nonpayable",
      "type": "function"
    },
    {
      "inputs": [
        {
          "internalType": "address",
          "name": "ngo",
          "type": "address"
        }
      ],
      "name": "addNGO",
      "outputs": [],
      "stateMutability": "nonpayable",
      "type": "function"
    },
    {
      "inputs": [
        {
          "internalType": "address",
          "name": "supplier",
          "type": "address"
        }
      ],
      "name": "addSupplier",
      "outputs": [],
      "stateMutability": "nonpayable",
      "type": "function"
    },
    {
      "inputs": [
        {
          "internalType": "uint256",
          "name": "requestId",
          "type": "uint256"
        }
      ],
      "name": "cancelRequest",
      "outputs": [],
      "stateMutability": "nonpayable",
      "type": "function"
    },
    {
      "inputs": [
        {
          "internalType": "uint256",
          "name": "",
          "type": "uint256"
        }
      ],
      "name": "clothingRegistry",
      "outputs": [
        {
          "internalType": "uint256",
          "name": "id",
          "type": "uint256"
        },
        {
          "internalType": "address",
          "name": "supplier",
          "type": "address"
        },
        {
          "internalType": "string",
          "name": "garmentProfile",
          "type": "string"
        },
        {
          "internalType": "enum ClothingDistribution.ConditionTier",
          "name": "condition",
          "type": "uint8"
        },
        {
          "internalType": "string",
          "name": "gpsProvenance",
          "type": "string"
        },
        {
          "internalType": "bool",
          "name": "isAllocated",
          "type": "bool"
        },
        {
          "internalType": "uint256",
          "name": "createdAt",
          "type": "uint256"
        }
      ],
      "stateMutability": "view",
      "type": "function"
    },
    {
      "inputs": [
        {
          "internalType": "string",
          "name": "itemTypeNeeded",
          "type": "string"
        },
        {
          "internalType": "uint256",
          "name": "quantityNeeded",
          "type": "uint256"
        },
        {
          "internalType": "string",
          "name": "sectorLocation",
          "type": "string"
        }
      ],
      "name": "createReliefRequest",
      "outputs": [],
      "stateMutability": "nonpayable",
      "type": "function"
    },
    {
      "inputs": [
        {
          "internalType": "uint256",
          "name": "itemId",
          "type": "uint256"
        }
      ],
      "name": "getClothingItem",
      "outputs": [
        {
          "components": [
            {
              "internalType": "uint256",
              "name": "id",
              "type": "uint256"
            },
            {
              "internalType": "address",
              "name": "supplier",
              "type": "address"
            },
            {
              "internalType": "string",
              "name": "garmentProfile",
              "type": "string"
            },
            {
              "internalType": "enum ClothingDistribution.ConditionTier",
              "name": "condition",
              "type": "uint8"
            },
            {
              "internalType": "string",
              "name": "gpsProvenance",
              "type": "string"
            },
            {
              "internalType": "bool",
              "name": "isAllocated",
              "type": "bool"
            },
            {
              "internalType": "uint256",
              "name": "createdAt",
              "type": "uint256"
            }
          ],
          "internalType": "struct ClothingDistribution.ClothingItem",
          "name": "",
          "type": "tuple"
        }
      ],
      "stateMutability": "view",
      "type": "function"
    },
    {
      "inputs": [
        {
          "internalType": "uint256",
          "name": "requestId",
          "type": "uint256"
        }
      ],
      "name": "getReliefRequest",
      "outputs": [
        {
          "components": [
            {
              "internalType": "uint256",
              "name": "id",
              "type": "uint256"
            },
            {
              "internalType": "address",
              "name": "ngo",
              "type": "address"
            },
            {
              "internalType": "string",
              "name": "itemTypeNeeded",
              "type": "string"
            },
            {
              "internalType": "uint256",
              "name": "quantityNeeded",
              "type": "uint256"
            },
            {
              "internalType": "string",
              "name": "sectorLocation",
              "type": "string"
            },
            {
              "internalType": "enum ClothingDistribution.RequestStatus",
              "name": "status",
              "type": "uint8"
            },
            {
              "internalType": "uint256",
              "name": "matchedItemId",
              "type": "uint256"
            },
            {
              "internalType": "uint256",
              "name": "createdAt",
              "type": "uint256"
            },
            {
              "internalType": "uint256",
              "name": "deliveredAt",
              "type": "uint256"
            }
          ],
          "internalType": "struct ClothingDistribution.ReliefRequest",
          "name": "",
          "type": "tuple"
        }
      ],
      "stateMutability": "view",
      "type": "function"
    },
    {
      "inputs": [
        {
          "internalType": "bytes32",
          "name": "role",
          "type": "bytes32"
        }
      ],
      "name": "getRoleAdmin",
      "outputs": [
        {
          "internalType": "bytes32",
          "name": "",
          "type": "bytes32"
        }
      ],
      "stateMutability": "view",
      "type": "function"
    },
    {
      "inputs": [
        {
          "internalType": "bytes32",
          "name": "role",
          "type": "bytes32"
        },
        {
          "internalType": "address",
          "name": "account",
          "type": "address"
        }
      ],
      "name": "grantRole",
      "outputs": [],
      "stateMutability": "nonpayable",
      "type": "function"
    },
    {
      "inputs": [
        {
          "internalType": "bytes32",
          "name": "role",
          "type": "bytes32"
        },
        {
          "internalType": "address",
          "name": "account",
          "type": "address"
        }
      ],
      "name": "hasRole",
      "outputs": [
        {
          "internalType": "bool",
          "name": "",
          "type": "bool"
        }
      ],
      "stateMutability": "view",
      "type": "function"
    },
    {
      "inputs": [],
      "name": "itemCount",
      "outputs": [
        {
          "internalType": "uint256",
          "name": "",
          "type": "uint256"
        }
      ],
      "stateMutability": "view",
      "type": "function"
    },
    {
      "inputs": [
        {
          "internalType": "uint256",
          "name": "requestId",
          "type": "uint256"
        },
        {
          "internalType": "uint256",
          "name": "itemId",
          "type": "uint256"
        }
      ],
      "name": "matchSupplyToRequest",
      "outputs": [],
      "stateMutability": "nonpayable",
      "type": "function"
    },
    {
      "inputs": [],
      "name": "pause",
      "outputs": [],
      "stateMutability": "nonpayable",
      "type": "function"
    },
    {
      "inputs": [],
      "name": "paused",
      "outputs": [
        {
          "internalType": "bool",
          "name": "",
          "type": "bool"
        }
      ],
      "stateMutability": "view",
      "type": "function"
    },
    {
      "inputs": [
        {
          "internalType": "uint256",
          "name": "",
          "type": "uint256"
        }
      ],
      "name": "reliefRequests",
      "outputs": [
        {
          "internalType": "uint256",
          "name": "id",
          "type": "uint256"
        },
        {
          "internalType": "address",
          "name": "ngo",
          "type": "address"
        },
        {
          "internalType": "string",
          "name": "itemTypeNeeded",
          "type": "string"
        },
        {
          "internalType": "uint256",
          "name": "quantityNeeded",
          "type": "uint256"
        },
        {
          "internalType": "string",
          "name": "sectorLocation",
          "type": "string"
        },
        {
          "internalType": "enum ClothingDistribution.RequestStatus",
          "name": "status",
          "type": "uint8"
        },
        {
          "internalType": "uint256",
          "name": "matchedItemId",
          "type": "uint256"
        },
        {
          "internalType": "uint256",
          "name": "createdAt",
          "type": "uint256"
        },
        {
          "internalType": "uint256",
          "name": "deliveredAt",
          "type": "uint256"
        }
      ],
      "stateMutability": "view",
      "type": "function"
    },
    {
      "inputs": [
        {
          "internalType": "bytes32",
          "name": "role",
          "type": "bytes32"
        },
        {
          "internalType": "address",
          "name": "callerConfirmation",
          "type": "address"
        }
      ],
      "name": "renounceRole",
      "outputs": [],
      "stateMutability": "nonpayable",
      "type": "function"
    },
    {
      "inputs": [],
      "name": "requestCount",
      "outputs": [
        {
          "internalType": "uint256",
          "name": "",
          "type": "uint256"
        }
      ],
      "stateMutability": "view",
      "type": "function"
    },
    {
      "inputs": [
        {
          "internalType": "bytes32",
          "name": "role",
          "type": "bytes32"
        },
        {
          "internalType": "address",
          "name": "account",
          "type": "address"
        }
      ],
      "name": "revokeRole",
      "outputs": [],
      "stateMutability": "nonpayable",
      "type": "function"
    },
    {
      "inputs": [
        {
          "internalType": "bytes4",
          "name": "interfaceId",
          "type": "bytes4"
        }
      ],
      "name": "supportsInterface",
      "outputs": [
        {
          "internalType": "bool",
          "name": "",
          "type": "bool"
        }
      ],
      "stateMutability": "view",
      "type": "function"
    },
    {
      "inputs": [
        {
          "internalType": "string",
          "name": "garmentProfile",
          "type": "string"
        },
        {
          "internalType": "enum ClothingDistribution.ConditionTier",
          "name": "condition",
          "type": "uint8"
        },
        {
          "internalType": "string",
          "name": "gpsProvenance",
          "type": "string"
        }
      ],
      "name": "tokenizeClothing",
      "outputs": [],
      "stateMutability": "nonpayable",
      "type": "function"
    },
    {
      "inputs": [],
      "name": "unpause",
      "outputs": [],
      "stateMutability": "nonpayable",
      "type": "function"
    },
    {
      "inputs": [
        {
          "internalType": "uint256",
          "name": "requestId",
          "type": "uint256"
        }
      ],
      "name": "verifyDelivery",
      "outputs": [],
      "stateMutability": "nonpayable",
      "type": "function"
    }
  ],
  "bytecode": "0x608060405234801561000f575f5ffd5b50604051611ed3380380611ed383398101604081905261002e91610181565b60017f9b779b17422d0df92223018b32b4d1fa46e071723d6817e2486d003becc55f00556001600160a01b03811661009c5760405162461bcd60e51b815260206004820152600d60248201526c24b73b30b634b21030b236b4b760991b604482015260640160405180910390fd5b6100a65f826100d8565b506100d17fdf91394c13c48ebd5370100f1eb84afe3c6c47a78f9f9f874d5a9ec6afe0ae6b826100d8565b50506101ae565b5f828152602081815260408083206001600160a01b038516845290915281205460ff16610178575f838152602081815260408083206001600160a01b03861684529091529020805460ff191660011790556101303390565b6001600160a01b0316826001600160a01b0316847f2f8788117e7eff1d82e926ec794901d17c78024a50270940304540a733656f0d60405160405180910390a450600161017b565b505f5b92915050565b5f60208284031215610191575f5ffd5b81516001600160a01b03811681146101a7575f5ffd5b9392505050565b611d18806101bb5f395ff3fe608060405234801561000f575f5ffd5b50600436106101a1575f3560e01c80635badbe4c116100f3578063a29508fc11610093578063d547741f1161006e578063d547741f14610398578063d7696915146103ab578063e1f6869e146103d3578063f10a6dfc146103f3575f5ffd5b8063a29508fc14610337578063b2194ff51461035e578063b848aaac14610385575f5ffd5b80636de1587e116100ce5780636de1587e146103025780638456cb591461031557806391d148541461031d578063a217fddf14610330575f5ffd5b80635badbe4c146102e55780635c975abb146102ee5780636bfb0d01146102f9575f5ffd5b8063248a9ca31161015e5780633015394c116101395780633015394c1461029157806336568abe146102a45780633ba7370c146102b75780633f4ba83a146102dd575f5ffd5b8063248a9ca31461023b57806327b5d03a1461026b5780632f2ff15d1461027e575f5ffd5b806301ffc9a7146101a5578063021efd92146101cd5780630cd5a9ef146101e257806317df4745146101f55780631e9ef2f21461020857806323675c4714610228575b5f5ffd5b6101b86101b3366004611694565b610407565b60405190151581526020015b60405180910390f35b6101e06101db366004611707565b61043d565b005b6101e06101f0366004611780565b610674565b6101e0610203366004611803565b610882565b61021b61021636600461181c565b6108ba565b6040516101c49190611889565b6101e061023636600461181c565b610a6e565b61025d61024936600461181c565b5f9081526020819052604090206001015490565b6040519081526020016101c4565b6101e0610279366004611803565b610b8b565b6101e061028c366004611914565b610bbb565b6101e061029f36600461181c565b610be5565b6101e06102b2366004611914565b610cd5565b6102ca6102c536600461181c565b610d0d565b6040516101c4979695949392919061193e565b6101e0610e6a565b61025d60035481565b60015460ff166101b8565b61025d60025481565b6101e0610310366004611803565b610e7c565b6101e0610e9d565b6101b861032b366004611914565b610eaf565b61025d5f81565b61025d7fd1ae8bbdabd60d63e418b84f5ad6f9cba90092c9816d7724d85f0d4e4bea2c6081565b61025d7fdf91394c13c48ebd5370100f1eb84afe3c6c47a78f9f9f874d5a9ec6afe0ae6b81565b6101e061039336600461199d565b610ed7565b6101e06103a6366004611914565b61103c565b6103be6103b936600461181c565b611060565b6040516101c4999897969594939291906119cd565b6103e66103e136600461181c565b6111c1565b6040516101c49190611a40565b61025d5f516020611ca35f395f51905f5281565b5f6001600160e01b03198216637965db0b60e01b148061043757506301ffc9a760e01b6001600160e01b03198316145b92915050565b610445611384565b5f516020611ca35f395f51905f5261045c816113aa565b5f85900361047d57604051630103b55560e71b815260040160405180910390fd5b5f82900361049e57604051630103b55560e71b815260040160405180910390fd5b835f036104be5760405163524f409b60e01b815260040160405180910390fd5b60038054600101908190556040805161012081018252918252336020808401919091528151601f89018290048202810182018352888152918301919089908990819084018382808284375f92019190915250505090825250602080820187905260408051601f870183900483028101830182528681529201919086908690819084018382808284375f9201829052509385525050506020808301829052604080840183905242606085015260809093018290526003548252600581529082902083518155908301516001820180546001600160a01b0319166001600160a01b039092169190911790559082015160028201906105ba9082611b81565b5060608201516003820155608082015160048201906105d99082611b81565b5060a082015160058201805460ff191660018360038111156105fd576105fd611861565b021790555060c0820151816006015560e082015181600701556101008201518160080155905050336001600160a01b03166003547fafd604faeb0bcaaca8ec3750660321c260dfb50bdec52db089fd36be25de30bf88888860405161066493929190611c64565b60405180910390a3505050505050565b61067c611384565b7fd1ae8bbdabd60d63e418b84f5ad6f9cba90092c9816d7724d85f0d4e4bea2c606106a6816113aa565b5f8590036106c757604051630103b55560e71b815260040160405180910390fd5b5f8290036106e857604051630103b55560e71b815260040160405180910390fd5b60028054600101908190556040805160e081018252918252336020808401919091528151601f89018290048202810182018352888152918301919089908990819084018382808284375f9201919091525050509082525060200185600281111561075457610754611861565b815260200184848080601f0160208091040260200160405190810160405280939291908181526020018383808284375f920182905250938552505050602080830182905242604093840152600280548352600482529183902084518155908401516001820180546001600160a01b0319166001600160a01b0390921691909117905591830151908201906107e89082611b81565b50606082015160038201805460ff1916600183600281111561080c5761080c611861565b0217905550608082015160048201906108259082611b81565b5060a082015160058201805460ff191691151591909117905560c0909101516006909101556002546040513391907f43f6419b8b734a2ef95eebe31576933aa6ac0d582e9095033e7aaeb7a0e5076790610664908a908a90611c87565b5f61088c816113aa565b6108b67fd1ae8bbdabd60d63e418b84f5ad6f9cba90092c9816d7724d85f0d4e4bea2c6083610bbb565b5050565b6108c26115e3565b5f82815260046020908152604091829020825160e0810184528154815260018201546001600160a01b031692810192909252600281018054929391929184019161090b90611afe565b80601f016020809104026020016040519081016040528092919081815260200182805461093790611afe565b80156109825780601f1061095957610100808354040283529160200191610982565b820191905f5260205f20905b81548152906001019060200180831161096557829003601f168201915b5050509183525050600382015460209091019060ff1660028111156109a9576109a9611861565b60028111156109ba576109ba611861565b81526020016004820180546109ce90611afe565b80601f01602080910402602001604051908101604052809291908181526020018280546109fa90611afe565b8015610a455780601f10610a1c57610100808354040283529160200191610a45565b820191905f5260205f20905b815481529060010190602001808311610a2857829003601f168201915b5050509183525050600582015460ff161515602082015260069091015460409091015292915050565b610a76611384565b610a7e6113b4565b5f516020611ca35f395f51905f52610a95816113aa565b5f8281526005602052604081208054909103610ac4576040516341abc80160e01b815260040160405180910390fd5b60018101546001600160a01b03163314610af0576040516282b42960e81b815260040160405180910390fd5b6001600582015460ff166003811115610b0b57610b0b611861565b14610b29576040516307a92f1960e51b815260040160405180910390fd5b60058101805460ff19166002179055426008820155600681015460405133919085907f6cf548ff960336ddb17bb05af9fed1e6e1e834bf71a03228717a2003d46c77cb905f90a45050610b8860015f516020611cc35f395f51905f5255565b50565b5f610b95816113aa565b6108b67fdf91394c13c48ebd5370100f1eb84afe3c6c47a78f9f9f874d5a9ec6afe0ae6b835b5f82815260208190526040902060010154610bd5816113aa565b610bdf83836113cf565b50505050565b610bed611384565b5f516020611ca35f395f51905f52610c04816113aa565b5f8281526005602052604081208054909103610c33576040516341abc80160e01b815260040160405180910390fd5b60018101546001600160a01b03163314610c5f576040516282b42960e81b815260040160405180910390fd5b5f600582015460ff166003811115610c7957610c79611861565b14610c97576040516307a92f1960e51b815260040160405180910390fd5b60058101805460ff1916600317905560405183907fee243f878b7fc2f54e934ca33783d4395d42bc07612e2bd4b8e0e178639f7a28905f90a2505050565b6001600160a01b0381163314610cfe5760405163334bd91960e11b815260040160405180910390fd5b610d08828261145e565b505050565b60046020525f908152604090208054600182015460028301805492936001600160a01b0390921692610d3e90611afe565b80601f0160208091040260200160405190810160405280929190818152602001828054610d6a90611afe565b8015610db55780601f10610d8c57610100808354040283529160200191610db5565b820191905f5260205f20905b815481529060010190602001808311610d9857829003601f168201915b5050506003840154600485018054949560ff909216949193509150610dd990611afe565b80601f0160208091040260200160405190810160405280929190818152602001828054610e0590611afe565b8015610e505780601f10610e2757610100808354040283529160200191610e50565b820191905f5260205f20905b815481529060010190602001808311610e3357829003601f168201915b505050506005830154600690930154919260ff1691905087565b5f610e74816113aa565b610b886114c7565b5f610e86816113aa565b6108b65f516020611ca35f395f51905f5283610bbb565b5f610ea7816113aa565b610b88611519565b5f918252602082815260408084206001600160a01b0393909316845291905290205460ff1690565b610edf611384565b610ee76113b4565b7fdf91394c13c48ebd5370100f1eb84afe3c6c47a78f9f9f874d5a9ec6afe0ae6b610f11816113aa565b5f838152600560209081526040808320858452600490925282208154919290919003610f50576040516341abc80160e01b815260040160405180910390fd5b80545f03610f71576040516327b3518960e11b815260040160405180910390fd5b5f600583015460ff166003811115610f8b57610f8b611861565b14610fa9576040516307a92f1960e51b815260040160405180910390fd5b600581015460ff1615610fcf5760405163185e69a360e31b815260040160405180910390fd5b60058181018054600160ff1991821681179092559184018054909216179055600682018490556040513390859087907ff0b2e0b2a842ec5740f7baaa666fd3cca00c26dd7996b41d15fba0886315efed905f90a45050506108b660015f516020611cc35f395f51905f5255565b5f82815260208190526040902060010154611056816113aa565b610bdf838361145e565b60056020525f908152604090208054600182015460028301805492936001600160a01b039092169261109190611afe565b80601f01602080910402602001604051908101604052809291908181526020018280546110bd90611afe565b80156111085780601f106110df57610100808354040283529160200191611108565b820191905f5260205f20905b8154815290600101906020018083116110eb57829003601f168201915b50505050509080600301549080600401805461112390611afe565b80601f016020809104026020016040519081016040528092919081815260200182805461114f90611afe565b801561119a5780601f106111715761010080835404028352916020019161119a565b820191905f5260205f20905b81548152906001019060200180831161117d57829003601f168201915b50505050600583015460068401546007850154600890950154939460ff9092169390925089565b6111c9611635565b5f828152600560209081526040918290208251610120810184528154815260018201546001600160a01b031692810192909252600281018054929391929184019161121390611afe565b80601f016020809104026020016040519081016040528092919081815260200182805461123f90611afe565b801561128a5780601f106112615761010080835404028352916020019161128a565b820191905f5260205f20905b81548152906001019060200180831161126d57829003601f168201915b50505050508152602001600382015481526020016004820180546112ad90611afe565b80601f01602080910402602001604051908101604052809291908181526020018280546112d990611afe565b80156113245780601f106112fb57610100808354040283529160200191611324565b820191905f5260205f20905b81548152906001019060200180831161130757829003601f168201915b5050509183525050600582015460209091019060ff16600381111561134b5761134b611861565b600381111561135c5761135c611861565b8152600682015460208201526007820154604082015260089091015460609091015292915050565b60015460ff16156113a85760405163d93c066560e01b815260040160405180910390fd5b565b610b888133611554565b6113bc611591565b60025f516020611cc35f395f51905f5255565b5f6113da8383610eaf565b611457575f838152602081815260408083206001600160a01b03861684529091529020805460ff1916600117905561140f3390565b6001600160a01b0316826001600160a01b0316847f2f8788117e7eff1d82e926ec794901d17c78024a50270940304540a733656f0d60405160405180910390a4506001610437565b505f610437565b5f6114698383610eaf565b15611457575f838152602081815260408083206001600160a01b0386168085529252808320805460ff1916905551339286917ff6391f5c32d9c69d2a47ea670b442974b53935d1edc7fd64eb21e047a839171b9190a4506001610437565b6114cf6115c0565b6001805460ff191690557f5db9ee0a495bf2e6ff9c91a7834c1ba4fdd244a5e8aa4e537bd38aeae4b073aa335b6040516001600160a01b03909116815260200160405180910390a1565b611521611384565b6001805460ff1916811790557f62e78cea01bee320cd4e420270b5ea74000d11b0c9f74754ebdbfc544b05a258336114fc565b61155e8282610eaf565b6108b65760405163e2517d3f60e01b81526001600160a01b03821660048201526024810183905260440160405180910390fd5b5f516020611cc35f395f51905f52546002036113a857604051633ee5aeb560e01b815260040160405180910390fd5b60015460ff166113a857604051638dfc202b60e01b815260040160405180910390fd5b6040518060e001604052805f81526020015f6001600160a01b03168152602001606081526020015f600281111561161c5761161c611861565b81526060602082018190525f6040830181905291015290565b6040518061012001604052805f81526020015f6001600160a01b03168152602001606081526020015f8152602001606081526020015f600381111561167c5761167c611861565b81526020015f81526020015f81526020015f81525090565b5f602082840312156116a4575f5ffd5b81356001600160e01b0319811681146116bb575f5ffd5b9392505050565b5f5f83601f8401126116d2575f5ffd5b50813567ffffffffffffffff8111156116e9575f5ffd5b602083019150836020828501011115611700575f5ffd5b9250929050565b5f5f5f5f5f6060868803121561171b575f5ffd5b853567ffffffffffffffff811115611731575f5ffd5b61173d888289016116c2565b90965094505060208601359250604086013567ffffffffffffffff811115611763575f5ffd5b61176f888289016116c2565b969995985093965092949392505050565b5f5f5f5f5f60608688031215611794575f5ffd5b853567ffffffffffffffff8111156117aa575f5ffd5b6117b6888289016116c2565b9096509450506020860135600381106117cd575f5ffd5b9250604086013567ffffffffffffffff811115611763575f5ffd5b80356001600160a01b03811681146117fe575f5ffd5b919050565b5f60208284031215611813575f5ffd5b6116bb826117e8565b5f6020828403121561182c575f5ffd5b5035919050565b5f81518084528060208401602086015e5f602082860101526020601f19601f83011685010191505092915050565b634e487b7160e01b5f52602160045260245ffd5b6003811061188557611885611861565b9052565b602081528151602082015260018060a01b0360208301511660408201525f604083015160e060608401526118c1610100840182611833565b905060608401516118d56080850182611875565b506080840151838203601f190160a08501526118f18282611833565b91505060a0840151151560c084015260c084015160e08401528091505092915050565b5f5f60408385031215611925575f5ffd5b82359150611935602084016117e8565b90509250929050565b8781526001600160a01b038716602082015260e0604082018190525f9061196790830188611833565b6119746060840188611875565b82810360808401526119868187611833565b94151560a0840152505060c0015295945050505050565b5f5f604083850312156119ae575f5ffd5b50508035926020909101359150565b6004811061188557611885611861565b8981526001600160a01b0389166020820152610120604082018190525f906119f79083018a611833565b8860608401528281036080840152611a0f8189611833565b915050611a1f60a08301876119bd565b8460c08301528360e0830152826101008301529a9950505050505050505050565b60208152815160208201525f6020830151611a6660408401826001600160a01b03169052565b5060408301516101206060840152611a82610140840182611833565b9050606084015160808401526080840151601f198483030160a0850152611aa98282611833565b91505060a0840151611abe60c08501826119bd565b5060c084015160e084015260e08401516101008401526101008401516101208401528091505092915050565b634e487b7160e01b5f52604160045260245ffd5b600181811c90821680611b1257607f821691505b602082108103611b3057634e487b7160e01b5f52602260045260245ffd5b50919050565b601f821115610d0857805f5260205f20601f840160051c81016020851015611b5b5750805b601f840160051c820191505b81811015611b7a575f8155600101611b67565b5050505050565b815167ffffffffffffffff811115611b9b57611b9b611aea565b611baf81611ba98454611afe565b84611b36565b6020601f821160018114611be1575f8315611bca5750848201515b5f19600385901b1c1916600184901b178455611b7a565b5f84815260208120601f198516915b82811015611c105787850151825560209485019460019092019101611bf0565b5084821015611c2d57868401515f19600387901b60f8161c191681555b50505050600190811b01905550565b81835281816020850137505f828201602090810191909152601f909101601f19169091010190565b604081525f611c77604083018587611c3c565b9050826020830152949350505050565b602081525f611c9a602083018486611c3c565b94935050505056fe7409dd26ef14054436243be79996fa1ab352eb1e8f34bcf72012e7de1d1176f09b779b17422d0df92223018b32b4d1fa46e071723d6817e2486d003becc55f00a2646970667358221220526692e18c1f6f693b1445e38c5e32e147e667338742411cefe577a1a708648c64736f6c634300081c0033",
  "linkReferences": {},
  "deployedLinkReferences": {},
  "immutableReferences": {},
  "inputSourceName": "project/contracts/ClothingDistribution.sol",
  "buildInfoId": "solc-0_8_28-78ff654106d7372c1f692fdebcb8e0384793edb5"
}